:020000040800F2
:10000000980A002089010008110D0008690A0008FB
:10001000CD0B0008FD0400085F210008000000006F
:100020000000000000000000000000008D15000826
:1000300001050008000000005D140008A91900086F
:10004000A3010008A3010008A3010008A301000800
:10005000A3010008A301000805050008A30100088A
:10006000A3010008A3010008A3010008A3010008E0
:10007000A3010008A3010008A3010008A3010008D0
:10008000A3010008A3010008A3010008A3010008C0
:10009000A3010008A3010008A30100089D050008B2
:1000A000A3010008A3010008A3010008A3010008A0
:1000B000A30100080D1A0008A3010008A30100080D
:1000C000A3010008A3010008A3010008A301000880
:1000D000A3010008A51D0008451E0008E51E000834
:1000E00025050008A3010008A301000800F002F89C
:1000F00000F03AF80AA090E8000C82448344AAF188
:100100000107DA4501D100F02FF8AFF2090EBAE885
:100110000F0013F0010F18BFFB1A43F0010318473B
:10012000444A0000644A0000103A24BF78C878C1ED
:10013000FAD8520724BF30C830C144BF04680C60ED
:10014000704700000023002400250026103A28BF35
:1001500078C1FBD8520728BF30C148BF0B60704739
:100160001FB51FBD10B510BD00F063F81146FFF7B5
:10017000F7FF02F03FF800F081F803B4FFF7F2FF59
:1001800003BC00F089F8000009488047094800478F
:10019000FEE7FEE7FEE7FEE7FEE7FEE7FEE7FEE737
:1001A000FEE7FEE704480549054A064B7047000094
:1001B000AD190008ED00000898040020980A0020FE
:1001C000980600209806002010B5203AC0F00B8059
:1001D000B1E81850203AA0E81850B1E81850A0E84B
:1001E0001850BFF4F5AF5FEA027C24BFB1E81850A5
:1001F000A0E8185044BF18C918C0BDE810405FEA15
:10020000827C24BF51F8043B40F8043B08BF704790
:10021000D20728BF31F8023B48BF11F8012B28BF95
:1002200020F8023B48BF00F8012B70477047704729
:100230007047754600F02CF8AE46050069465346F7
:1002400020F00700854618B020B5FFF7ABFFBDE8EA
:1002500020404FF000064FF000074FF000084FF02D
:10026000000B21F00701AC46ACE8C009ACE8C009BE
:10027000ACE8C009ACE8C0098D46704710B504462B
:10028000AFF300802046BDE81040FFF776BF0000C6
:10029000004870473804002001491820ABBEFEE733
:1002A00026000200704721B1826842F0010282609C
:1002B00003E0826822F0010282607047014600205C
:1002C0008A6802F004020AB1012000E000207047B1
:1002D0000146C86C80B270470246002013680B408C
:1002E0000BB1012000E000207047014600208A6821
:1002F00002F008020AB1012000E00020704700006F
:1003000030B502460020002350680F4C20400D7984
:100310000C6844EA05242043506090680B4C204050
:10032000D1E902542C434D7944EA450420439060BE
:10033000D06A20F470000C7C641EE4B2234340EACF
:100340000350D06230BD0000FFFEF0FFFDF7F1FF6B
:10035000F0B504460D4600200021092D11DDE068AE
:10036000A5F10A0606EB4607072606FA07F18843B9
:10037000A5F10A0606EB460603FA06F10843E0601B
:100380000CE0206905EB4507072606FA07F18843CC
:1003900005EB450603FA06F108432061072A0FDA48
:1003A000606B561E06EB86071F2606FA07F1884388
:1003B000561E06EB860605FA06F10843606322E046
:1003C0000D2A0FDA206BD61F06EB86071F2606FACA
:1003D00007F18843D61F06EB860605FA06F10843A7
:1003E000206310E0E06AA2F10D0606EB86071F26E7
:1003F00006FA07F18843A2F10D0606EB860605FA18
:1004000006F10843E062F0BD816841F008018160B7
:10041000704721B1826842F4A002826003E08268E2
:1004200022F4A00282607047816841F0040181607B
:100430007047000010B504460523012221460948F3
:10044000FFF786FF01210748FFF7E3FF00BF022106
:100450000448FFF741FF0028F9D00248FFF738FFB2
:1004600010BD00000024014000B587B00121480202
:1004700001F012F80121042001F00EF84FF40040C1
:1004800000F0EEFF00208DF81B000620ADF81800EC
:1004900003208DF81A0006A9164800F04DFA002036
:1004A000019004904FF46020039000208DF8090023
:1004B0008DF8080001208DF8140001A90E48FFF7FF
:1004C0001FFF01210C48FFF7EEFE0B48FFF79CFFD2
:1004D00000BF0948FFF709FF0128FAD00648FFF7D7
:1004E000A3FF00BF0448FFF7E9FE0128FAD007B0D8
:1004F00000BD0000000801400024014000BFFEE7ED
:100500007047000010B5012000F076F830B100F01F
:1005100019FB01200249087000F068F810BD0000C6
:10052000520000201CB54FF4804000F065F801280F
:1005300008D118484088401C164948804FF4804034
:1005400000F054F84FF4004000F056F8012820D194
:1005500000F0E2FA10480078401C0F490870087853
:10056000C11700EB5171C910A0EBC1010A4A11700B
:10057000012010210346CDE90010104602780F211A
:100580006E2000F081FE00F02BFD4FF4004000F0E3
:100590002DF81CBD2C040020530000201CB5202089
:1005A00000F02AF8F8B100F0B7FA0F480078401CC4
:1005B0000D4908700878C11700EB5171C910A0EB04
:1005C000C101094A1170012010210346CDE9001034
:1005D000104602780F215F2000F056FE00F000FD6B
:1005E000202000F003F81CBD5100002001490860E4
:1005F0007047000014040140014600200022074B10
:100600001B6803EA0102054B14331B680B4013B14E
:100610000AB1012000E00020704700000004014002
:10062000002123498279002A3AD00A4612680368D9
:100630009A430B461A600A1D126803689A430B1D01
:100640001A60027911440A6803681A430A60184A5A
:100650000832126803689A43154B08331A601A1D52
:10066000126803689A43124B0C331A604279102ABD
:100670000ED11A1F126803681A430D4B08331A6013
:100680001A1D126803681A43094B0C331A600DE0F7
:100690000749427911440A6803681A430A6005E071
:1006A000027911440A6803689A430A60704700009F
:1006B000000401401FB50121082000F0EDFE0121DA
:1006C000084600F0E9FE48208DF80F004FF4804006
:1006D000ADF80C0003208DF80E0003A9144800F0BB
:1006E0002BF90E21012000F007F94FF48040019012
:1006F00001208DF80A0000208DF808000C208DF8EC
:10070000090001A8FFF78CFF4FF4A06000F03AFB4E
:1007100028208DF8000001208DF8030002208DF8BC
:1007200001008DF80200684600F0F4FA1FBD0000D9
:10073000000C01401FB50121042000F0ADFE012195
:10074000102000F0A9FE0121084600F0A5FE482077
:100750008DF80F004FF40040ADF80C0003208DF829
:100760000E0003A9344800F0E7F828208DF80F00A8
:100770000120ADF80C0003208DF80E0003A92E48CF
:1007800000F0DAF848208DF80F002020ADF80C00BA
:1007900003208DF80E0003A9284800F0CDF80F21A2
:1007A000002000F0A9F80021084600F0A5F8052176
:1007B000022000F0A1F848F22100019001208DF8FC
:1007C0000A0000208DF808000C208DF8090001A80F
:1007D000FFF726FF4FF4A06000F0D4FA28208DF830
:1007E000000001208DF8030002208DF801008DF833
:1007F0000200684600F08EFA06208DF80000012005
:100800008DF8030002208DF8010001208DF8020010
:10081000684600F07FFA17208DF8000001208DF85F
:10082000030002208DF8010000208DF802006846C8
:1008300000F070FA1FBD00000008014000100140E8
:100840002DE9FC41002427480078002847D025489E
:10085000408800283CDD2349488802F021F90746FA
:10086000214902F01FF80646204902F061F90546C9
:100870001C488168284601F0A7FF1A49886048880B
:1008800002F00EF906461A4902F00CF8054617491F
:1008900002F04EF9134948608868144902F048F99B
:1008A000054602F0C1F80446012010210423224627
:1008B000CDE900100F21282000F0E6FC09498868E6
:1008C0000C4902F001FA06D800200649886002E0CF
:1008D0000020044948600020024908704880BDE8B3
:1008E000FC8100002C0400200080684500007A4450
:1008F000000078420024744930B500228B071C0F99
:100900000F2303FA04F20B4B8C1053F8243093435B
:10091000084C8D1044F8253023468C1053F82430B1
:100920008C07240F00FA04F42343024C8D1044F882
:10093000253030BD080001402DE9F0410246002578
:100940000026002000230024002791F803C00CF0AB
:100950000F0591F803C00CF0100CBCF1000F03D090
:1009600091F802C04CEA050591F800C0BCF1000FF7
:1009700031D0146800202BE04FF0010C0CFA00F38A
:10098000B1F800C00CEA03069E4220D183004FF06C
:100990000F0C0CFA03F7BC4305FA03FC4CEA040401
:1009A00091F803C0BCF1280F06D14FF0010C0CFAEE
:1009B00000FCC2F814C00AE091F803C0BCF1480F73
:1009C00005D14FF0010C0CFA00FCC2F810C0401C1D
:1009D0000828D1D31460B1F800C0BCF1FF0F34DD9A
:1009E000546800202EE000F1080C4FF0010808FACE
:1009F0000CF3B1F800C00CEA03069E4221D183003B
:100A00004FF00F0C0CFA03F7BC4305FA03FC4CEA59
:100A1000040491F803C0BCF1280F05D100F1080CC3
:100A200008FA0CF8C2F8148091F803C0BCF1480F22
:100A300007D100F1080C4FF0010808FA0CF8C2F8D1
:100A40001080401C0828CED35460BDE8F0810246D7
:100A50000020D3680B400BB1012000E0002070475C
:100A6000416170470161704700BFFEE710B54FF468
:100A700000710C48FFF7F6FF4FF480710948FFF74B
:100A8000F1FF00F041F84FF400710648FFF7E8FF6E
:100A900000F03AF84FF480710248FFF7E1FF00F0F0
:100AA00033F810BD000C014010B54FF40071084838
:100AB000FFF7D6FF4FF480710548FFF7D3FF00F032
:100AC00023F84FF400710248FFF7CCFF10BD00007F
:100AD000000C014010B54FF400710A48FFF7C2FF47
:100AE00000F012F84FF480710648FFF7BBFF00F0EA
:100AF0000BF84FF480710348FFF7B2FF00F004F8E1
:100B000010BD0000000C0140032000BF011EA0F139
:100B10000102D0B2FAD1704710B54FF48071084885
:100B2000FFF795FF28B94FF480710548FFF79AFF4A
:100B300004E04FF480710248FFF792FF10BD0000FF
:100B40000008014010B504210648FFF780FF20B9D6
:100B500004210448FFF786FF03E004210148FFF762
:100B60007FFF10BD0014014008B50121042000F0F2
:100B700093FC0121202000F08FFC10208DF8030051
:100B80000001ADF8000003208DF8020069460D4811
:100B9000FFF7D2FE10208DF803000420ADF800000E
:100BA00003208DF8020069460748FFF7C5FE4FF4A1
:100BB00080710448FFF756FF04210348FFF752FFF6
:100BC00008BD0000000801400014014000BFFEE71E
:100BD00010B501210148FFF743FF10BD000C014093
:100BE00010B501210148FFF73DFF10BD000C014089
:100BF00010B502210148FFF733FF10BD000C014082
:100C000010B502210148FFF72DFF10BD000C014077
:100C100010B540210148FFF723FF10BD001001402F
:100C200010B540210148FFF71DFF10BD0010014025
:100C300010B50446A0B200F0FDFB10BD10B504468F
:100C4000A0B200F001FC10BD10B580210148FFF7F3
:100C500009FF10BD0010014008B50121042000F07B
:100C60001BFC10208DF803003020ADF8000003209D
:100C70008DF8020069461348FFF75EFE0121082047
:100C800000F00AFC10208DF803000320ADF80000EE
:100C90008DF8020069460C48FFF74EFE0121102036
:100CA00000F0FAFB10208DF80300C020ADF8000022
:100CB00003208DF8020069460448FFF73DFE00F06E
:100CC0006BFB08BD00080140000C01400010014012
:100CD00010B50446002C0BDB10210C48FFF7C2FEB8
:100CE00020210A48FFF7BCFEA0B200F0A3FB0BE0F6
:100CF00010210648FFF7B4FE20210448FFF7B2FE9A
:100D0000614288B200F096FB10BD0000000801406F
:100D10007047000070B5002100230F22C47804B38F
:100D2000154C246804F4E064C4F5E064210AC1F1C0
:100D30000403CA40447804FA03F184781440214340
:100D400009010E4C0678A155047804F01F05012412
:100D5000AC4005786D11AD0005F1E025C5F8004106
:100D600009E0047804F01F050124AC40044D067826
:100D7000761145F8264070BD0CED00E000E400E07F
:100D800080E100E002490143024A1160704700001F
:100D90000000FA050CED00E070B500240CE0002521
:100DA00006E00020074901EB85010855681CC5B223
:100DB000802DF6DB601CC4B2042CF0DB00F010F9CF
:100DC00070BD00005C00002010B504461CB9002175
:100DD000A62000F0C4FA012C03D10021A72000F0C6
:100DE000BEFA10BD10B504463CB90021C82000F081
:100DF000B6FA0021A12000F0B2FA012C07D100219F
:100E0000C02000F0ACFA0021A02000F0A8FA10BD2C
:100E1000F0B514460B46CF1701EB5777C7F3C7025F
:100E2000CF1701EB5777FF10A1EBC707FEB20123E5
:100E3000B340DDB24CB1134B03EB80039B5C2B43FF
:100E4000104F07EB8007BB541AE00E4B03EB8003F7
:100E50009B5CDB430B4F07EB8007BB54094B03EB59
:100E600080039B5C2B43074F07EB8007BB54054B6C
:100E700003EB80039B5CDB43024F07EB8007BB5413
:100E8000F0BD00005C00002008B50121082000F042
:100E900003FB4FF44070ADF8000014208DF8030000
:100EA00003208DF8020069464548FFF745FD4FF4E1
:100EB00040714348FFF7D6FD0420ADF80000102034
:100EC0008DF8030003208DF8020069463D48FFF7C6
:100ED00033FD04213B48FFF7C5FD04213948FFF7E6
:100EE000BFFDC82001F060F904213648FFF7BAFDC4
:100EF0000021AE2000F033FA0021084600F02FFA5E
:100F00000021102000F02BFA0021084600F027FAFB
:100F10000021B02000F023FA0021812000F01FFA08
:100F20000021FF2000F01BFA0021A12000F017FA99
:100F30000021A62000F013FA0021A82000F00FFAEB
:100F400000211F2000F00BFA0021C82000F007FA52
:100F50000021D32000F003FA0021084600F0FFF939
:100F60000021D52000F0FBF90021802000F0F7F9E6
:100F70000021D92000F0F3F900211F2000F0EFF943
:100F80000021DA2000F0EBF90021084600F0E7F933
:100F90000021DB2000F0E3F90021402000F0DFF920
:100FA00000218D2000F0DBF90021142000F0D7F99A
:100FB000FFF7F2FE0021AF2000F0D1F908BD0000DC
:100FC000000C01400008014010B50246012000E07D
:100FD00050430B1EA1F10104E1B2F9D110BD000094
:100FE00070B500242BE004F1B001C8B2002100F07C
:100FF000B6F90021084600F0B2F90021102000F0F7
:10100000AEF9FFF733FD782000F0C2FAFFF762FD7A
:10101000402000F0BDFAFFF75DFD002509E0094919
:1010200001EB8501085D00F0B3FAFFF753FD681C82
:10103000C5B2802DF3DBFFF737FD601CC4B2042C72
:10104000D1DB70BD5C0000202DE9FE4F07468846CD
:1010500092461C460197CDF80080082C02D14FF033
:1010600006091FE02046E31704EB5373DB1021460B
:101070004FEAE47C04EB5C7C4FEAEC0CA4EBCC0C78
:10108000BCF1000F02D04FF0010C01E04FF0000C5A
:101090006344224604EBD27C4FEA6C0C03FB0CF356
:1010A00003F0FF09AAF12000C6B200255EE0082C7B
:1010B00007D106EB46002F4901EB400010F805B0C0
:1010C0001DE00C2C07D106EB46002B4901EB8000FC
:1010D00010F805B013E0102C05D1284800EB0610DD
:1010E00010F805B00BE0182C07D106EBC600244918
:1010F00001EB800010F805B001E0BDE8FE8F002094
:1011000002901CE00BF0010028B1414638460C9AD1
:10111000FFF77EFE09E00C9808B9012000E00020EE
:10112000024641463846FFF773FE4FEA6B0B08F163
:10113000010000F0FF080298401CC0B20290029823
:101140000828DFDB781CC7B2082C0BD004EBD47165
:101150004A100199791A8A4204D1019F00980830F7
:10116000C0B20090DDF80080681CC5B24D459EDB22
:1011700000BFC2E7162E00083E300008B234000857
:10118000A23A00082DE9FC4F0746884616461C4641
:10119000BB46CDF804802046E21704EB5272D21011
:1011A0002146E31704EB5373DB10A4EBC3030BB12D
:1011B000012300E000231A44624392B2009200250A
:1011C00055E0102C05D12C4800EB461010F805A076
:1011D0001BE0182C07D106EBC600284901EBC00024
:1011E00010F805A011E0202C05D1254800EBC61011
:1011F00010F805A009E0402C05D1224800EB46205C
:1012000010F805A001E0BDE8FC8F4FF000091CE0DC
:101210000AF0010028B1414638460B9AFFF7F8FD65
:1012200009E00B9808B9012000E000200246414681
:101230003846FFF7EDFD4FEA6A0A08F1010000F0B9
:10124000FF0809F1010000F0FF09B9F1080FDFDB29
:10125000781CC7B2A7EB0B00A04204D15F460198EF
:101260000830C0B20190DDF80480681C85B2009897
:101270008542A6DB00BFC6E7FE4700087E4800089F
:10128000C6480008464900082DE9FF4F82B00646CF
:1012900091461F46DDE90F4A4FF0000B082C01D1A3
:1012A0004FF0020B002530E0781B401EC1B20A202F
:1012B000FFF78AFEB9FBF0F00A21B0FBF1F201FB67
:1012C0001208B8F1000F0ED104EBD4710BEB6101E1
:1012D00001FB0561C8B223463022CDE900A4039981
:1012E000FFF7B2FE0FE004EBD4710BEB610101FBE1
:1012F0000561C8B208F13001CAB22346CDE900A4A5
:101300000399FFF7A1FE681CC5B2BD42CCDB06B055
:10131000BDE8F08F2DE9F84106460F4614461D46FC
:10132000DDF81C8013E0CDF8008022782B4639468A
:101330003046FFF789FE082D02D1B01DC6B205E088
:10134000284605EBD07106EB6101CEB2641C207813
:10135000202802DB20787E28E5DDBDE8F88170B525
:1013600005460C46FFF782FB782000F011F9FFF7E5
:10137000B1FB1CB1402000F00BF902E0002000F0AE
:1013800007F9FFF7A7FB284600F002F9FFF7A2FBD9
:10139000FFF78AFB70BD000000B589B00121042071
:1013A00000F06AF80121082000F076F818208DF886
:1013B0002300C020ADF8200003208DF8220008A9EA
:1013C0001A48FFF7B9FA1A4800F0E7FB0020ADF819
:1013D0001A00ADF816006320ADF818002320ADF810
:1013E000140000208DF81C0005A9114800F088FCAD
:1013F00001A800F077FC6020ADF804000020ADF8F3
:101400000C000120ADF806000020ADF80A0001A98B
:10141000074800F0C9FB01A9054800F011FC0121B3
:10142000034800F094FB09B000BD0000000C01402F
:101430000008004010B504462146024800F05CFC5C
:1014400010BD00000008004010B5044621460248C7
:1014500000F054FC10BD0000000800407047000080
:1014600001460020034A506820F440400843506081
:10147000704700000010024029B1064AD2690243B9
:10148000044BDA6104E0034AD2698243014BDA611A
:10149000704700000010024029B1064A92690243D9
:1014A000044B9A6104E0034A92698243014B9A61BA
:1014B000704700000010024030B5002100220024D7
:1014C00000232D4D6D6805F00C0121B1042905D0D4
:1014D000082923D105E0294D056022E0274D05604C
:1014E0001FE0254D6D6805F47012234D6D6805F4FD
:1014F0008034022505EB92421CB9214D554305600D
:101500000BE01D4D6D6805F400351DB11C4D5543B4
:10151000056002E0194D5543056002E0174D056076
:1015200000BF00BF144D6D6805F0F0010909154DAD
:101530006B5C0568DD4045600F4D6D6805F4E0614A
:10154000090A104D6B5C4568DD4085600A4D6D6889
:1015500005F46051C90A0B4D6B5C4568DD40C56000
:10156000054D6D6805F44041890B074D6B5CC568FE
:10157000B5FBF3F5056130BD0010024000127A00A2
:1015800000093D00140000202400002070470000E6
:1015900070B5044600251FE004F0800028B14FF428
:1015A00000710F48FFF75EFA04E04FF400710C4839
:1015B000FFF756FAFFF7A8FA4FF480710848FFF7D3
:1015C00051FAFFF7A1FA4FF480710548FFF748FA86
:1015D0006006040E681CC5B2082DDDDB70BD00007E
:1015E000000C014000B587B001218803FFF754FFCC
:1015F00001210420FFF750FF18208DF81B004FF445
:101600000070ADF8180003208DF81A0006A9714883
:10161000FFF792F948208DF81B004FF48060ADF879
:10162000180003208DF81A0006A96A48FFF784F90C
:101630004FF4165002900020ADF814000C20ADF8C5
:1016400012000020ADF81000ADF80E00ADF80C004F
:1016500002A9614800F00EFD012240F225515E48CA
:1016600000F0E2FC4FF4A060FFF78CFB25208DF822
:10167000040001208DF8070002208DF805000020ED
:101680008DF8060001A8FFF745FB0121524800F044
:1016900088FC01214804FFF7EFFE01210420FFF739
:1016A000FBFE0420ADF8180003208DF81A00182066
:1016B0008DF81B0006A94748FFF73EF90820ADF852
:1016C000180004208DF81B0006A94248FFF734F9E2
:1016D0004FF4A060FFF756FB26208DF8040002208F
:1016E0008DF805008DF8060001208DF8070001A88F
:1016F000FFF710FB4FF4165002900020ADF80C00DD
:10170000ADF80E00ADF81000ADF814000C20ADF8E7
:10171000120002A9314800F0ADFC012240F225512F
:101720002E4800F081FC01212C4800F03AFC0121F8
:101730008804FFF7A1FE01210820FFF7ADFE4FF45A
:101740008060ADF8180003208DF81A0018208DF87D
:101750001B0006A92248FFF7EFF84FF40060ADF830
:10176000180004208DF81B0006A91D48FFF7E4F8B7
:101770004FF4A060FFF706FB27208DF8040002203D
:101780008DF8050001208DF806008DF8070001A8EE
:10179000FFF7C0FA4FF4165002900020ADF80C008D
:1017A000ADF80E00ADF81000ADF814000C20ADF847
:1017B000120002A90B4800F05DFC012240F2255105
:1017C000084800F031FC0121064800F0EAFB07B0B0
:1017D00000BD000000080140003801400044004006
:1017E000000C01400048004010B50246012000E016
:1017F00050430B1EA1F10101FAD110BD2DE9F041BA
:1018000007460D461646002405E0295D384600F0DF
:1018100006F8601C84B2B442F7DBBDE8F08170B515
:1018200004460D462946204600F095FC00BF802165
:10183000204600F0C2FB0028F9D070BD2DE9F04130
:1018400007460E461446002513E0601B411E0A2081
:10185000FFF7CAFFB6FBF0F00A21B0FBF1F201FB83
:10186000120000F1300841463846FFF7D8FF681CE7
:10187000C5B2A542E9DBBDE8F08170B506460C466D
:10188000002505E0615D3046FFF7C9FF681CC5B261
:10189000605D0028F6D170BD10B500F001F810BDF4
:1018A0000CB50020019000903348006840F480306F
:1018B0003149086000BF3048006800F400300090F3
:1018C0000198401C0190009818B90198B0F5A06FDC
:1018D000F1D12948006800F4003010B101200090D7
:1018E00001E0002000900098012843D123480068BF
:1018F00040F01000214908600846006820F003000D
:1019000008600846006840F0020008601A48406815
:10191000194948600846406848600846406840F4F5
:10192000806048600846406820F47C1048600846A3
:10193000406840F4E81048600846006840F0807055
:10194000086000BF0C48006800F000700028F9D063
:101950000948406820F0030007494860084640688D
:1019600040F00200486000BF0348406800F00C00EF
:101970000828F9D10CBD00000010024000200240F0
:10198000042808D14FF0E021096941F004014FF02B
:10199000E022116107E04FF0E021096921F0040124
:1019A0004FF0E022116170477047000010B51348F6
:1019B000006840F00100114908600846406810497D
:1019C00008400E494860084600680E4908400B4927
:1019D00008600846006820F48020086008464068D7
:1019E00020F4FE0048604FF41F008860FFF754FFAA
:1019F0004FF000600449086010BD00000010024074
:101A00000000FFF8FFFFF6FE08ED00E01CB5012125
:101A10002D4800F0A8F8002854D02C48006818B9C8
:101A200001202A49086034E029480078012830D193
:101A30000020284908602849086018E02548006807
:101A400000EB8000400023490860244822490968CF
:101A5000405C3038224908601E4800680968084424
:101A60001C4908601C480068401C1B4908601A4853
:101A700000680428E2DB012010210423CDE90010D6
:101A80001448002102682820FFF7FEFB00201049BF
:101A90000870FEF7D5FE012012490870486800F072
:101AA000DFFF04460120102103232246CDE9001068
:101AB0000F212820FFF7E8FBFFF792FA01210248E7
:101AC00000F042F81CBD0000000400403800002077
:101AD0002D000020400000204400002000030020D2
:101AE0003C0000202C0400207FB505460C46012157
:101AF0000220FFF7C1FCADF80850ADF8044000200B
:101B0000ADF80A00ADF8060001A90E4800F0F8F89B
:101B1000012211460B4800F037F81D208DF8000017
:101B200000208DF8010003208DF8020001208DF8BF
:101B300003006846FFF7EEF80121024800F007F8BD
:101B40007FBD000000040040CA430282704721B1FB
:101B5000028842F00102028004E002884FF6FE7320
:101B60001A400280704730B502460020002300244E
:101B7000158A05EA0103958905EA010413B10CB140
:101B8000012000E0002030BD1AB183890B4383811E
:101B900002E083898B438381704701894FF6F87295
:101BA000114001817047000070B50024002200231D
:101BB000058C4FF6FE7635400584028C8388048BB5
:101BC0004FF68F752C40B51E2C400D882C43751E8A
:101BD0002A400D892A434D882A43144DA8420BD030
:101BE000134DA84208D0134DA84205D0124DA8426B
:101BF00002D0124DA84213D14FF6F7752A404D89F5
:101C00002A434FF6FB752A408D882A434FF6FF651D
:101C10002B404FF6FF552B408D892B43CD892B430D
:101C200083800483CD888586028470BD002C0140AA
:101C300000340140004001400044014000480140A0
:101C400070B5002400220023058C4FF6EF76354056
:101C50000584028C8388048B48F6FF752C404FF670
:101C6000FF452C400D884FF6FF7606EA05252C43EC
:101C70004FF6DF752A400D8906EA05152A434D887F
:101C800006EA05152A43154DA84202D0144DA84274
:101C90001DD14FF67F752A404D894FF6FF7606EA33
:101CA00005152A434FF6BF752A408D8806EA0515AB
:101CB0002A434FF6FF352B404FF2FF752B408D899D
:101CC00006EA85052B43CD8906EA85052B438380EB
:101CD0000483CD880587028470BD0000002C01407C
:101CE000003401400021018041808180C180018158
:101CF00041818181C181704781867047018770472A
:101D0000002202881D4B98420ED01D4B98420BD0EA
:101D1000B0F1804F08D01B4B984205D01A4B984227
:101D200002D01A4B984204D14FF68F731A404B8859
:101D30001A43174B984207D0164B984204D04FF6DF
:101D4000FF431A40CB881A4302808B8883850B8817
:101D500003850A4B98420BD0094B984208D00E4B92
:101D6000984205D00D4B984202D00D4B984201D1BC
:101D70000B7A03860123838270470000002C014008
:101D8000003401400004004000080040000C004006
:101D90000010004000140040004001400044014099
:101DA0000048014010B540F22551214800F012F9D9
:101DB00001283CD11E4800F0C9F9C4B21D48007882
:101DC00058B9212C2DD11C48007850BB012019494D
:101DD000087000201949087023E01648007801288F
:101DE0000FD10D2C03D102201249087019E01448BC
:101DF00012490978445411480078401C0F49087072
:101E00000FE00C48007802280BD10A2C09D10020E1
:101E1000084908700A49094A12788854012006497D
:101E2000087040F22551024800F0ACF800BF10BD28
:101E300000380140300000202C000020310000203C
:101E40009C02002010B540F22551214800F0C2F854
:101E500001283CD11E4800F079F9C4B21D48007831
:101E600058B9232C2DD11C48007850BB01201949AA
:101E7000087000201949087023E0164800780128EE
:101E80000FD10D2C03D102201249087019E014481B
:101E900012490978445411480078401C0F490870D1
:101EA0000FE00C48007802280BD10A2C09D1002041
:101EB000084908700A49094A1278885401200649DD
:101EC000087040F22551024800F05CF800BF10BDD8
:101ED00000440040320000202D000020330000208C
:101EE0000003002010B540F22551214800F072F89F
:101EF00001283CD11E4800F029F9C4B21D480078E1
:101F000058B9212C2DD11C48007850BB012019490B
:101F1000087000201949087023E01648007801284D
:101F20000FD10D2C03D102201249087019E014487A
:101F300012490978445411480078401C0F49087030
:101F40000FE00C48007802280BD10A2C09D10020A0
:101F5000084908700A49094A12788854012006493C
:101F6000087040F22551024800F00CF800BF10BD87
:101F700000480040340000202E00002035000020E2
:101F80006403002010B50022002340F66A14A14229
:101F900000D100BF0A1201249440A3B2DC430480A4
:101FA00010BD21B1828942F40052828104E082890D
:101FB0004DF6FF731A408281704702460020B1F54A
:101FC000007F00D100BF13880B400BB1012000E05F
:101FD0000020704770B50246002400230025002031
:101FE00040F66A16B14200D100BFC1F3421501F0BC
:101FF0001F03012606FA03F3012D02D1968933400F
:1020000006E0022D02D1168A334001E0968A334061
:102010000C12012606FA04F41688344013B10CB1F0
:10202000012000E0002070BDF0B50346002400262A
:102030000025002040F66A17B94200D100BF1846BB
:10204000C1F3421401F01F06012707FA06F5012C1F
:1020500001D10C3004E0022C01D1103000E014302A
:102060001AB107682F43076002E00768AF430760B3
:10207000F0BD00002DE9F04786B005460E4600246D
:10208000A24600BFA1460027B08900B100BF2F467D
:102090002C8A4CF6FF700440F08804432C82AC89F3
:1020A0004EF6F3100440B088318908437189084323
:1020B0000443AC81AC8A4FF6FF400440B08904432E
:1020C000AC8201A8FFF7F8F91F48874202D1DDF87A
:1020D00010A001E0DDF80CA0A88900F4004040B198
:1020E0000AEBCA0000EB0A1031684900B0FBF1F8B6
:1020F00007E00AEBCA0000EB0A1031688900B0FB68
:10210000F1F86420B8FBF0F004012009642101FB20
:102110001089A88900F4004040B1322000EBC900CA
:10212000B0FBF1F000F00700044308E0322000EBC0
:1021300009106421B0FBF1F000F00F0004432C8182
:1021400006B0BDE8F08700000038014001468888ED
:10215000C0F308007047C1F308028280704700BFD7
:10216000FEE7000010B56FF00400FFF709FC0A4815
:1021700000680A49B0FBF1F0094908700846007888
:1021800000EB4001C1EBC0104FF6FF7101EAC00047
:102190000449088010BD00000000002000127A00F1
:1021A000280000202A0000200146114A12884A43D4
:1021B0004FF0E0235A6100229A611A46126942F0F8
:1021C00001021A6100BF4FF0E022106900F0010225
:1021D0001AB100F48032002AF5D04FF0E0221269E3
:1021E00022F001024FF0E0231A6100229A61704749
:1021F0002A0000208AB0FFF7B5FFFEF7B5FCFEF716
:1022000043FE0020FEF7E0FD0020FEF7EBFDFEF7A9
:102210002BF9FFF7E7F9FFF7BFF8FEF71DFD0024E4
:10222000FEF712FD002700250026FEF743FAFEF711
:1022300081FA41F61F4142F20F70FFF755FC1C2254
:10224000FE4903A8FDF7C0FF4FF009080020FC4934
:102250000870FC4908700120FB490870FB490870B0
:102260000020FB490870FB4908700120102103463B
:10227000CDE90010F24802780F215F20FFF704F843
:10228000012010230022114600901046FEF77AFF2D
:10229000012010230246002100900F20FEF772FF5C
:1022A00001201023ECA2002100901F20FFF732F83C
:1022B0000120102302220F2100900020FEF762FF70
:1022C0000120102303220F2100900846FEF75AFF39
:1022D00001201023E0A20F2100901F20FFF71AF821
:1022E000FEF77EFE5EE20120FEF7A4F8DB490880DF
:1022F000DB48007801287DD1DA480078692832D19E
:10230000D9A1DB48FFF7B9FAD64840783038CC4934
:102310000870D44880783038CB490870D148C078EC
:102320003038CA490870CF4800793038C54908703C
:10233000012010210346CDE90010C14802780F2189
:102340005F20FEF7A1FF012010210346CDE9001018
:10235000BD4802780F216E20FEF796FFFEF740FE83
:10236000FEF7F0FBB3E0BF480078302806D1BEA1ED
:10237000BF48FFF782FAFEF7E5FBA8E0B94800780E
:10238000312816D1BBA1BA48FFF777FABB49486894
:1023900000F066FBBA490860B849486800F060FB85
:1023A000814608224946B248FFF748FAFEF7CAFBC1
:1023B0008DE0AC48007832282DD1AA4840783038DA
:1023C000B0490870A7488078097801EB810100EBDB
:1023D00041003038AB49087008460478642094FB0B
:1023E000F0F100FB114460B2FEF772FC01201021F5
:1023F000032300E06EE02246CDE9001000211F20FB
:10240000FEF742FFFEF7ECFD97A19948FFF735FA7A
:10241000FEF798FB5BE0934800786E2819D191484D
:1024200040783038974908700846007800EB400043
:1024300003AA811842469448FFF7E0F993A1924815
:10244000FFF71BFA88A18A48FFF717FAFEF77AFB15
:102450003DE084480078662819D1824840783038B9
:10246000884908700846007800EB400003AA8118EC
:1024700042468548FFF7C2F984A18348FFF7FDF97A
:1024800079A17B48FFF7F9F9FEF75CFB1FE075487F
:10249000007863281BD17348407830387949087038
:1024A0000846007800EB400003AA811842467648AF
:1024B000FFF7A4F977A17448FFF7DFF90220644918
:1024C000087069A16A48FFF7D8F9FEF73BFB0020C6
:1024D000634908705E48007801280ED17048007882
:1024E00001280AD16F496248FFF7C7F95FA1604828
:1024F000FFF7C3F900206A490870524800780128A4
:102500007ED14F48007840B94F480078002803D169
:1025100065A16748FFF7B1F941E149480078012812
:1025200058D14948007888B937B162A15048FFF7BF
:10253000A4F9FEF76DFB05E0FEF772FB60A14C48C5
:10254000FFF79BF90FB1002700E001273E48007814
:10255000012811D135B15DA14548FFF78EF9FEF78D
:1025600037FB05E05CA14248FFF787F9FEF738FB2F
:102570000DB1002500E0012533480078022811D173
:1025800036B158A13A48FFF778F9FEF731FB05E07C
:1025900057A13748FFF771F9FEF732FB0EB100265D
:1025A00000E00126284800780328B5D1012D06D186
:1025B0002EB9FEF70DFB0025FEF722FB0126002DAC
:1025C000AAD1012EA8D1FEF713FB0026FEF708FBC7
:1025D0000125E4E01A48007802282DD11A48007835
:1025E000012814D1641D642094FBF0F100FB114418
:1025F0000120102102232246CDE90010002100E035
:10260000D0E06420FEF740FEFEF7EAFCC7E00E488B
:102610000078022875D1641F642094FBF0F100FB60
:1026200011440120102102232246CDE9001000218F
:102630006420FEF729FE61E073E062E0484B000889
:1026400051000020520000205300002054000020C0
:10265000560000202D0000203A0000004A00002013
:102660002E000020640300202161636B0D0A00002E
:102670000048004061636B0D0A0000002C0400203C
:10268000580000205500002000380140216F6E0DD9
:102690000A00000021636865636B0D0A00000000FA
:1026A0002C0000209C02002043414C0D0A00000039
:1026B00000440040214D315F4F46460D0A000000A6
:1026C000214D315F4F4E0D0A00000000214D313188
:1026D0005F4F46460D0A0000214D31315F4F4E0DD0
:1026E0000A000000214D31325F4F46460D0A0000BE
:1026F000214D31325F4F4E0D0A000000FEF770FC95
:102700004DE029480078032803D160B2FEF790FA23
:1027100045E025480078042841D160B2FEF78EFAE2
:102720003DE022480078032839D11F48007888B955
:102730001F48007800EB400003AA811842461D485C
:10274000FFF75CF8AFF2B4011A48FFF796F80120E2
:10275000194908701448007801280ED114480078EF
:1027600000EB400003AA811842461248FFF746F8E2
:10277000AFF2E8010F48FFF780F80B480078022815
:102780000DD10B48007800EB400003AA81184246A7
:102790000848FFF733F809A10648FFF76EF8002054
:1027A000084908709FE500005300002051000020F8
:1027B000540000200038014056000020216F66665A
:1027C0000D0A00005200002090EA010F48BF81F07E
:1027D000004100F1B282421A3CBF801A89184FEAC8
:1027E000D0524FF07F4C1CEA410FA2EBD15318BFDF
:1027F0009CEA026F00F03B804FF0004C4CEA002056
:102800004CEA012121FA03FC10EB0C0C1ED202F160
:10281000FF325FEA1C2040EBC25038BF70471CF00B
:102820007F0F4FEA400C18BFBCF17F4F38BF704795
:10283000C3F12003994008BF20F00100BCF17F4F95
:1028400038BF7047A0F1C04000F039BA4FEA3C00F1
:10285000000A40EBC25028BF1CF0FF0F4FEA400CAB
:10286000E6D018BFBCF17F4F38BF7047EAE79CEA5B
:10287000026F05D010EA5C0F08BF00F000407047FF
:1028800010B500F0D6F900BF64FBBE3E401058BF43
:10289000C0F14040491058BFC1F140418142EFF3BF
:1028A000008070474FF47F0C1CEAD0121EBF1CEA58
:1028B000D11392EA0C0F93EA0C0F00F0858090EA96
:1028C000010F48BF42F4807240F4000C41F4000054
:1028D0002CF07F4120F07F4000B58142A2EB030243
:1028E0000FF2081CACEB504EC0F100009EF800E067
:1028F0004FEA4E0E00FB0EFC38BF49004FEA2C1C7D
:1029000002F5FA020CFB0EF34FEACE1E4FEA112C31
:102910004FEAC1210EEB635E42EB22420EFB0CFC40
:102920004FEA1C5300FB03114FEA112C4FEA01310F
:102930000EFB0CFC4FEADC4C00FB0C11C14228BF23
:1029400009184CEB03335DF804EB10EB410143EB4A
:10295000C250B2F57C0F38BF704729D512F0F00F86
:102960001CBF00F1C04000F000407047008182832E
:102970008485868788898B8C8D8E8F91929395968E
:1029800097999A9C9D9FA0A2A3A5A7A8AAACAEB018
:10299000B2B3B5B7B9BCBEC0C2C5C7C9CCCED1D41D
:1029A000D7D9DCDFE2E6E9ECF0F3F7FAFE0000004D
:1029B0004FEA400C0CF1807CBCF17E4F28BF704781
:1029C000B0F1C04000F07BB990EA010F0CEAD113DE
:1029D00048BF42F48072624538BF634507D213F4A2
:1029E0007F0F16D080EA010000F00040704710B55C
:1029F00000F01FF9097EFC3E00F005B880EA0100F6
:102A000000F00040704780EA010000F0004000F054
:102A100056B912F47F0F04BF0248704780EA0100E4
:102A200000F04DB90000C07F41000B0ED3F19E02B3
:102A300008D950F400034FEA032323FA02F048BFF9
:102A40004042704710B500F0F4F800BF499224806E
:102A5000002070476FF0004282EA200070470000BB
:102A6000C10DD1F19E0206DB4FEA002343F0004383
:102A700023FA02F07047004207D54FEA4001B1F156
:102A8000FE4F02D24FF00000704710B500F0D1F8B1
:102A900049922480002070476FEA200070470000B0
:102AA000B0FA80F310FA03F2C3F19D030AD0D905FE
:102AB00001EB1220530638BF704700F1010008BF38
:102AC00020F001007047000050EA010C00F1138073
:102AD0001CF5000F58BFBCF5000F01D488427047A9
:102AE00007D710F5000F58BF11F5000F15D4884215
:102AF0007047894270471CF5000F04D5BCF5000FE4
:102B0000F7D5814270474FF0807C1CEB400F38BFF7
:102B10001CEB410F01D28142704710B500F089F8DB
:102B2000922449004FF000504FF08051FFF7AEBEA5
:102B30004FF47F0C1CEAD0121EBF1CEAD11392EA9C
:102B40000C0F93EA0C0F00F0478090EA010F48BF8A
:102B500042F480724FF0004C4CEA00204CEA012114
:102B600002EB0302A0FB0113A2F50002002918BF2B
:102B700043F001035B0028BF4FEA330342EB2242DC
:102B80005FEA132C4CEBC2502EBFBCEB436FB2F587
:102B90007C0F70474FEA036CBCF1004F08BF20F078
:102BA0000100B2F57C0F38BF70470BD582F0FF02F1
:102BB00012F5803FC8BF704700F1C040D8BF00F099
:102BC0000040704700F5000C5FEA4C0C48BF7047AE
:102BD000B0F1C04000F073B890EA010F0CEAD113D5
:102BE00048BF42F48072624538BF634504D280EA30
:102BF000010000F00040704710B500F01AF800BF67
:102C00008900013E00F007B800F009B85FEA410C06
:102C10005FEA1C6C08D080EA010000F050B85FEA5F
:102C2000400C5FEA1C6CF6D14FF00040A0F580002C
:102C300070470EF1020E2EF0030E5EF8044B244294
:102C400004D44FEA4102B2F17F4F11D84FEA40035A
:102C5000B3F17F4F0CD80ED14FEAD07CB2F17F4F49
:102C60000CEB4C0C0CF1020C08BF4CEBD17C04E0DB
:102C70004FF0080C01E04FEAD17C0CEB4C0324FA36
:102C800003F404F00704B4F1040C06D20EEB840C38
:102C9000BDE810404CF0010C6047DFE80CF007087D
:102CA00002024FF00040A0F5800010BD084642002F
:102CB00018BFD2F1807288BF00F0004010BDFF2124
:102CC00041EAD050C005704751EA000C00F1138072
:102CD0001CF5000F58BFBCF5000F01D481427047AE
:102CE00007D711F5000F58BF10F5000F15D481421A
:102CF0007047894270471CF5000F04D5BCF5000FE2
:102D0000F7D5884270474FF0807C1CEB410F38BFED
:102D10001CEB400F01D28842704780EA010081EA33
:102D2000000180EA0100FFF7F8BE000090EA010F01
:102D300048BF81F000413FF54EAD421A04D882F001
:102D40000042A0EB020011444FEAD0524FF07F4CFA
:102D50001CEA410FA2EBD15318BF9CEA026F4AD084
:102D60004FF0004C4CEA00204CEA012121FA03FC10
:102D7000B0EB0C0C0FD412F0FE0F36D05FEA4C0013
:102D80001DD5001240EBC25038BF70471CF03F0FFA
:102D900018BF70470BE0A2F101025FEA1C2040EB74
:102DA000C25038BF70471CF07F0F18BF7047C3F187
:102DB0002003994014BF401E20F001007047800896
:102DC0004FEA122308BF7047B0FA80FCA2EB0C0256
:102DD000CCF1280C60FA0CF093EA122F04BF00EB40
:102DE000C25070474FEAC3707047130A5FEADC10A5
:102DF00008BF7047F6E79CEA026F04D010EA5C0F48
:102E000008BF0020704710B5FFF713FF40DFF63E04
:102E100081F0004070470000000000000000002F1B
:102E2000000000000700070000147F147F14002436
:102E30002A7F2A1200626408132300364955225063
:102E400000000503000000001C2241000000412298
:102E50001C000014083E08140008083E0808000082
:102E600000A060000008080808080000606000007A
:102E7000002010080402003E5149453E0000427FF8
:102E80004000004261514946002141454B31001844
:102E900014127F10002745454539003C4A49493006
:102EA00000017109050300364949493600064949C0
:102EB000291E0000363600000000563600000008CB
:102EC00014224100001414141414000041221408A8
:102ED00000020151090600324959513E007C12118D
:102EE000127C007F49494936003E41414122007F22
:102EF0004141221C007F49494941007F09090901DC
:102F0000003E4149497A007F0808087F0000417F60
:102F10004100002040413F01007F08142241007F12
:102F200040404040007F020C027F007F0408107F79
:102F3000003E4141413E007F09090906003E4151E2
:102F4000215E007F0919294600464949493100019F
:102F5000017F0101003F4040403F001F2040201FF3
:102F6000003F4038403F00631408146300070870B6
:102F7000080700615149454300007F414100005569
:102F80002A552A55000041417F0000040201020435
:102F90000040404040400000010204000020545422
:102FA0005478007F48444438003844444420003872
:102FB0004444487F00385454541800087E090102E4
:102FC0000018A4A4A47C007F080404780000447DB9
:102FD0004000004080847D00007F102844000000F5
:102FE000417F4000007C04180478007C08040478C9
:102FF00000384444443800FC2424241800182424B5
:1030000018FC007C080404080048545454200004B0
:103010003F444020003C4040207C001C2040201CBD
:10302000003C4030403C004428102844001CA0A034
:10303000A07C004464544C44141414141414000070
:10304000000000000000000000000000FC00000084
:10305000000002000000000C020C02000000000052
:10306000000090D0BCD0BC900003000300001824E6
:10307000FE448C000302070201001824D8B04C80E3
:10308000000300010201C038E438E000010202013F
:10309000020208060000000000000000000000001E
:1030A00000F80402000000010204000204F800001D
:1030B0000004020100009060F86090000000010030
:1030C00000002020FC202000000001000000000083
:1030D0000000000008060000000020202020200042
:1030E00000000000000000000000000000020000DE
:1030F00000000080601C0200040300000000F804CF
:103100000404F8000102020201000008FC000000B3
:103110000002030200001884442418000302020283
:10312000020008042424D80001020202010040B079
:1031300088FC80000000000302003C242424C4001A
:10314000010202020100F824242CC0000102020244
:1031500001000C04E41C0400000003000000D8245B
:103160002424D80001020202010038444444F8003B
:103170000003020201000000100000000000020035
:1031800000000000200000000000060000000020F9
:10319000508804020000000001029090909090007E
:1031A000000000000000000204885020000201001E
:1031B00000001804C4241800000002000000F804F5
:1031C000E494F80001020202020000E09CF080009A
:1031D00002030000030204FC2424D80002030202BC
:1031E0000100F80404040C0001020202010004FCC6
:1031F0000404F80002030202010004FC24740C0021
:1032000002030202030004FC24740C000203020007
:103210000000F0080444CC4000010202010004FC5C
:103220002020FC040203000003020404FC04040048
:10323000020203020200000404FC04040604040366
:10324000000004FC24D00C0402030200030204FC6E
:1032500004000000020302020203FC3CC03CFC002C
:1032600003000300030004FC30C4FC04020302005A
:103270000300F8040404F80001020202010004FC47
:1032800024241800020302000000F8848404F800DB
:1032900001020207050004FC2464980002030200F6
:1032A0000302182424448C000302020201000C04CF
:1032B000FC040C0000020302000004FC0000FC04FB
:1032C000000102020100047C80E01C0400000300F5
:1032D00000001CE03CE01C00000300030000049C14
:1032E000609C0400020300030200041CE01C0400B4
:1032F0000002030200000C84641C040002030202AA
:1033000003000000FE020200000007040400000E9B
:1033100030C00000000000010200000202FE0000B8
:103320000004040700000004020400000000000084
:10333000000000000000000008080808080800005D
:10334000020000000000000000000040A0A0C0003B
:1033500000010202030204FC2020C000000302025C
:10336000010000C02020600000010202020000C035
:103370002024FC0000010202030200C0A0A0C00043
:103380000001020202000020F824240400020302CB
:1033900002000040A0A0602000070A0A0A0404FC02
:1033A0002020C0000203020003020020E40000000D
:1033B000000203020000000020E4000008080807E3
:1033C000000004FC80E02020020302000302040449
:1033D000FC000000020203020200E020E020C00026
:1033E00003000300030020E02020C00002030200CD
:1033F000030200C02020C00000010202010020E002
:103400002020C000080F0A02010000C02020E000B8
:103410000001020A0F0820E0402020000203020001
:1034200000000060A0A020000002020203000020B3
:10343000F820000000000102020020E00020E0006F
:1034400000010202030220E020806020000003014E
:1034500000006080E0806000000300030000206046
:103460008060200002030003020020E02080602032
:103470000808070100000020A060200000020302ED
:103480000200000020DE020000000007040000002F
:1034900000FF00000000000F00000002DE2000001E
:1034A0000004070000000201020404020000000002
:1034B000000000000000000000000000000000000C
:1034C0000000000000F800000000000000333000A1
:1034D000000000100C06100C0600000000000000A8
:1034E000000040C07840C0784000043F04043F041E
:1034F0000400007088FC08300000001820FF211E26
:103500000000F008F000E018000000211C031E215C
:103510001E0000F00888700000001E2123241927D7
:10352000211010160E000000000000000000000036
:103530000000000000E0180402000000000718204E
:10354000400000020418E0000000004020180700BE
:103550000000404080F0804040000202010F010264
:103560000200000000F0000000000101011F010145
:103570000100000000000000000080B070000000AA
:103580000000000000000000000000010101010136
:1035900001010000000000000000003030000000C9
:1035A00000000000000080601804006018060100A0
:1035B000000000E010080810E000000F10202010AC
:1035C0000F00001010F8000000000020203F202015
:1035D00000000070080808887000003028242221AC
:1035E0003000003008888848300000182020201162
:1035F0000E000000C02010F8000000070424243F43
:10360000240000F8088888080800001921202011EB
:103610000E0000E0108888180000000F1120201113
:103620000E0000380808C83808000000003F0000FD
:1036300000000070880808887000001C22212122E8
:103640001C0000E010080810E000000031222211E8
:103650000F00000000C0C00000000000003030007B
:1036600000000000008000000000000080600000FA
:103670000000000080402010080000010204081033
:103680002000404040404040400004040404040442
:1036900004000008102040800000002010080402F0
:1036A0000100007048080808F000000000303601F2
:1036B0000000C030C828E810E000071827242314B1
:1036C0000B000000C038E0000000203C230202276D
:1036D000382008F8888888700000203F20202011BA
:1036E0000E00C030080808083800071820202010F5
:1036F000080008F808080810E000203F20202010EB
:103700000F0008F88888E8081000203F20202320B8
:10371000180008F88888E8081000203F20000300FF
:103720000000C03008080838000007182020221EBA
:10373000020008F808000008F808203F21010121D4
:103740003F20000808F8080800000020203F202043
:10375000000000000808F8080800C08080807F0092
:10376000000008F888C028180800203F20012638EB
:10377000200008F8080000000000203F2020202042
:10378000300008F8F800F8F80800203F003F003F3C
:10379000200008F830C00008F808203F2000071873
:1037A0003F00E01008080810E0000F102020201053
:1037B0000F0008F808080808F000203F2101010167
:1037C0000000E01008080810E0000F18242438500A
:1037D0004F0008F8888888887000203F2000030C7C
:1037E0003020007088080808380000382021212285
:1037F0001C00180808F8080818000000203F2000E6
:10380000000008F808000008F808001F2020202009
:103810001F000878880000C83808000007380E012B
:103820000000F80800F80008F800033C0700073C17
:103830000300081868808068180820302C03032CC7
:1038400030200838C800C83808000000203F200099
:10385000000010080808C838080020382621202059
:103860001800000000FE020202000000007F40403D
:103870004000000C30C000000000000000010638CD
:10388000C00000020202FE000000004040407F0035
:10389000000000000402020204000000000000001A
:1038A0000000000000000000000080808080808018
:1038B0008080000202040000000000000000000000
:1038C0000000000080808080000000192422222255
:1038D0003F2008F8008080000000003F11202011E8
:1038E0000E000000008080800000000E11202020CB
:1038F0001100000000808088F800000E11202010C8
:103900003F200000808080800000001F22222222B1
:103910001300008080F0888888180020203F202035
:1039200000000000808080808000006B949494935D
:10393000600008F8008080800000203F2100002007
:103940003F2000809898000000000020203F2020A9
:103950000000000000809898000000C08080807FF8
:10396000000008F8000080808000203F24022D30F5
:103970002000000808F8000000000020203F202060
:1039800000008080808080808000203F20003F20D9
:10399000003F8080008080800000203F21000020C8
:1039A0003F200000808080800000001F2020202019
:1039B0001F00808000808000000080FFA120201177
:1039C0000E000000008080808000000E112020A0EA
:1039D000FF80808080008080800020203F212000A8
:1039E0000100000080808080800000332424242493
:1039F0001900008080E0808000000000001F20206F
:103A000000008080000000808000001F2020201027
:103A10003F20808080000080808000010E300806FA
:103A2000010080800080008080800F300C030C300B
:103A30000F0000808000808080000020312E0E3139
:103A40002000808080000080808080818E70180639
:103A5000010000808080808080000021302C2221A5
:103A6000300000000000807C020200000000003FE7
:103A7000404000000000FF00000000000000FF00C8
:103A800000000002027C800000000040403F000077
:103A90000000000601010202040400000000000012
:103AA0000000000000000000000000000000000016
:103AB0000000000000000000000000000000000006
:103AC0000000000000000000000000F0F0F0000026
:103AD00000000000000000017F0100000000000065
:103AE0000000001C1C1C0000000000008060301C56
:103AF0008C60301C0C000000000000000000000082
:103B000000000000000000000000000000000000B5
:103B100000E00000000000E000000086E69F8686CE
:103B20008686E69F860000011F01010101011F0139
:103B30000100000080C06020F820E0C0000000000C
:103B400003070C18FF70E18100000000070F101040
:103B50007F100F0700008060206080000000E020E0
:103B600000000F3020309F70DC371030C0000000A4
:103B7000100E03000718101807000000C02020E0F6
:103B8000C0000000000080E01F38E88703C43C0448
:103B90000000070F1810100B070D10100800008010
:103BA0008C4C380000000000000000000000000005
:103BB0000000000000000000000000000000000005
:103BC000000000000000000080E030080400000059
:103BD000000000FEFF0100000000000000000000E7
:103BE000030F1820400000040830E08000000000AF
:103BF00000000000000001FFFE0000000000004087
:103C000020180F030000000000000000000000006A
:103C1000C00000000000004266663C18FF183C66C9
:103C200066420000000000000300000000000000E9
:103C300000000000800000000000001010101010B4
:103C4000FF10101010100000000000000300000022
:103C50000000000000000000000000000000000064
:103C60000000000000000000000000808C4C3800C4
:103C70000000000000000000000000000000000044
:103C80000000001010101010101010101000000094
:103C90000000000000000000000000000000000024
:103CA0000000000000000000000000000000000014
:103CB000000000001C1C1C000000000000000000B0
:103CC000000000000000E0380C00000000008070E0
:103CD0001C03000000000060380E0100000000001E
:103CE0000000000080C060202060C080000000FE56
:103CF000FF010000000001FFFE000001070E181088
:103D000010180E0701000000808080C0E000000055
:103D100000000000000000FFFF00000000000000A5
:103D20001010101F1F1010100000008040202020D5
:103D30002060C080000000030300804020381F077F
:103D40000000001C1A1918181818181F000000800D
:103D5000C020202060C0800000000003030010107D
:103D6000182FE780000000070F10101010180F0721
:103D70000000000000000000C0E0F000000000C0F3
:103D8000B088868180FFFF80800000000000001066
:103D9000101F1F1010000000E06060606060606035
:103DA000000000003F1008080818F0E000000007BD
:103DB0000B101010101C0F030000000080C04020EA
:103DC0002020E0C0000000FCFF211008080818F0C7
:103DD000E0000001070C18101010080F030000008D
:103DE000C0E06060606060E0600000000300000010
:103DF000E0180700000000000000001F1F00000086
:103E000000000080C0602020202060C0800000876B
:103E1000EF2C1818303068CF830000070F081010FF
:103E20001010180F07000000C0C020202020C08004
:103E30000000001F3F604040402010FFFE000000D7
:103E40000C1C101010080F03000000000000000000
:103E500000000000000000000000000E0E0E000038
:103E6000000000000000001C1C1C000000000000FE
:103E70000000000000000000000000000000000C36
:103E80000C00000000000000000000583800000096
:103E90000000000000000000008040201000000032
:103EA0001028448201000000000000000000000013
:103EB00001020408100000000000000000000000E3
:103EC00000000084848484848484848484000000CA
:103ED00000000000000000000000000010204080F2
:103EE00000000000000000000000000001824428E3
:103EF000100000001008040201000000000000C0D3
:103F000020201010101030E0C0000003030000F06B
:103F100010080C070300000000001C1C1C0000001F
:103F20000000000000C0406020202040C00000FCD5
:103F3000FF01F00E03C1FE03807F0001070E081190
:103F40001110110904020000000080E0E0000000F0
:103F500000000000807C4340477FF880000010187C
:103F60001F1000000000131F1C1020E0E020202084
:103F70002060C080000000FFFF10101010182FE715
:103F80008000101F1F1010101010180F07000000E5
:103F900080C0402020202060E00000FCFF010000E5
:103FA0000000000001000001070E181010100804A6
:103FB000030020E0E02020202040C080000000FF1F
:103FC000FF000000000001FFFE00101F1F10101076
:103FD00018080E07010020E0E020202020202060AB
:103FE000800000FFFF101010107C00000000101F68
:103FF0001F10101010101018060020E0E0202020E4
:1040000020206060800000FFFF101010107C000076
:104010000100101F1F100000000000000000000041
:1040200080C06020202040E0000000FCFF01000074
:104030004040C0C140400001070E181010100F0F83
:10404000000020E0E0200000000020E0E02000FF71
:10405000FF101010101010FFFF00101F1F100000A5
:104060000000101F1F100000202020E0E020202072
:1040700000000000000000FFFF0000000000000042
:104080001010101F1F101010000000000000202052
:1040900020E0E020202000000000000000FFFF00E2
:1040A00000000060E0808080C07F3F00000020E0D2
:1040B000E020000020A06020200000FFFF30187CDE
:1040C000E3C000000000101F1F10000001131F1CA0
:1040D000181020E0E020000000000000000000FFB9
:1040E000FF000000000000000000101F1F10101053
:1040F00010101018060020E0E0E000000000E0E0F2
:10410000E02000FF013FFEC0E01E01FFFF00101F86
:104110001000031F0300101F1F1020E0E0C000006C
:1041200000000020E02000FF0003071C78E0800072
:10413000FF00101F100000000000030F1F00000010
:1041400080C060202060C080000000FEFF010000F1
:10415000000000FFFE000001070E181010180C07E9
:10416000010020E0E0202020202060C0800000FF2F
:10417000FF2020202020301F0F00101F1F100000E4
:10418000000000000000000080C060202060C080AF
:10419000000000FEFF010000000000FFFE00000123
:1041A000070E1111133C7C67210020E0E020202045
:1041B000202060C0800000FFFF101030F0D0080FFA
:1041C0000700101F1F10000000030F1C10100080BC
:1041D000C060202020204040E00000070F0C18188D
:1041E000303060E08100001F0C0810101010180F14
:1041F00007008060202020E0E02020206080010077
:10420000000000FFFF000000000100000000101F80
:104210001F100000000020E0E0200000000000204F
:10422000E02000FFFF00000000000000FF0000078A
:104230000F1810101010100807002060E0E0200098
:10424000000020E060200000077FF88000807C03F1
:10425000000000000000071F1C070000000020E015
:10426000E02000E0E0200020E0200007FFF8E01F51
:10427000FFFCE01F00000000031F0300011F0300FC
:104280000000002060E0A0000020E06020000000AE
:1042900000038F7CF8C6010000000010181E1300F8
:1042A00001171F1810002060E0E02000000020E04F
:1042B0006020000001073EF8E01807000000000041
:1042C0000010101F1F101000000000806020202030
:1042D00020A0E0E0200000000000C0F03E0F03003E
:1042E000000000101C1F171010101018060000000E
:1042F000000000FC0404040404000000000000FFAF
:1043000000000000000000000000007F404040402E
:104310004000000010E0000000000000000000006D
:104320000000031C6080000000000000000000008E
:1043300000030C70800000000404040404FC00006E
:10434000000000000000000000FF0000000000006E
:1043500040404040407F0000000000000010080C7A
:10436000040C081000000000000000000000000025
:10437000000000000000000000000000000000003D
:10438000000000000000000000000000000000002D
:10439000000000000000808080808080808080801D
:1043A00080800000000404080800000000000000F5
:1043B00000000000000000000000000000000000FD
:1043C00000000000000000000000000000000000ED
:1043D0000000000098D844642424FCF80000000F7A
:1043E0001F18101010081F1F10180020E0F0000008
:1043F0000000000000000000FFFF180804040CF893
:10440000F00000001F0F18101010180F030000001C
:104410000000000000000000000000E0F8180404A4
:10442000043C3800000000030F0C101010100806A8
:1044300000000000000000000020E0F0000000E0AC
:10444000F81C04040408FFFF000000030F181010FC
:1044500010081F0F0800000000000000000000000E
:1044600000000000E0F8484444444C78700000002C
:10447000030F0C181010100804000000000080C08A
:10448000602020E0C00000040404FFFF04040404D2
:104490000000000010101F1F10101000000000008E
:1044A00000000000000000000000000070F88C0414
:1044B000048CF874040C007076CF8D8D8D89C878CB
:1044C00070000020E0F0000000000000000000008C
:1044D000FFFF08040404FCF8000000101F1F100078
:1044E00000101F1F100000000000006060000000AE
:1044F00000000000040404FCFC00000000000000B8
:104500001010101F1F10101000000000000000000D
:1045100000606000000000000000040404FCFC00D7
:1045200000000000C0C08080C07F3F00000000206D
:10453000E0F000000000000000000000FFFF80C06D
:10454000F41C0404000000101F1F1100031F1C10A6
:1045500010000000202020E0F0000000000000001B
:10456000000000FFFF000000000000001010101FFE
:104570001F101010000000000000000000000000EC
:10458000000004FCFC0804FCFC0804FCFC00101FF8
:104590001F10001F1F10001F1F1000000000000050
:1045A0000000000000000004FCFC08080404FCF803
:1045B000000000101F1F100000101F1F100000003F
:1045C0000000000000000000000000E0F0180C04F3
:1045D000040C18F0E00000030F0C101010100C0F6A
:1045E00003000000000000000000000000000004C4
:1045F000FCFC080404040CF8F0000080FFFF889025
:1046000010101C0F0300000000000000000000005C
:10461000000000E0F81C04040408F8FC000000039B
:104620000F1810109088FFFF8000000000000000AD
:10463000000000000000040404FCFC100804040C4A
:104640000C001010101F1F101010000000000000C0
:104650000000000000000000000000003078CCC422
:104660008484840C1C0000001E1810101011190FF7
:1046700006000000000000C0000000000000000470
:104680000404FFFF040404000000000000000F1FEA
:104690001010100C000000000000000000000000DE
:1046A00000000004FCFE00000004FCFE000000000E
:1046B0000F1F181010081F0F080000000000000056
:1046C00000000000000000040C3CFCC40000C43CDE
:1046D0000C0400000000010F1E0E0100000000008D
:1046E00000000000000000000000043CFCC400E4E6
:1046F0007CFC84807C040000071F070000071F0764
:1047000000000000000000000000000000000004A5
:10471000041C7CE4C0341C0404000010101C1601AE
:10472000131F1C1810000000000000000000000013
:10473000000000040C3CFCC400C43C040400000065
:10474000C080C1370E010000000000000000000022
:1047500000000000000000001C0404C4F47C1C04E1
:1047600000000000101C1F17111010180E00000090
:104770000000000000F80C04000000000000001021
:1047800028EF00000000000000000000003F604033
:104790000000000000000000FF000000000000001A
:1047A00000000000FF00000000000000000000000A
:1047B000FF00000000000000040CF80000000000F2
:1047C000000000000000EF281000000000000000C2
:1047D00040603F00000000000000001806020204D4
:1047E0000810202030080000000000000000000039
:1047F0000000000000000000000000000000002099
:104800002020A06000FF60804020180000002010E1
:1048100008060140807F000102040810100000809B
:1048200060F80710901011161010D0100000010051
:1048300000FF4040415E4040704E414040001060EB
:10484000028C004464544D46445464C4040004047F
:104850007E0180403E0000FE00007E80E0002020BF
:1048600020BEAAAAAAAAAAAAAABE20202000008026
:1048700080AFAAAAAAFFAAAAAAAF8080000000005F
:1048800000C080808080808080FC848080808080E8
:1048900080C0C0000000000000FF7F40404040405A
:1048A00040FF40404040404040FF7F00000000008B
:1048B0000000000000000000007F70000000000009
:1048C00000000000000000000000000000000000E8
:1048D0000000000000FCF8000000000000000000E4
:1048E00000000000000000000000FFFE02020202C3
:1048F0000202020202FFFF0202020202020202029E
:10490000FF0300000000000000001F1F0404040457
:104910000404040404FFFF04040404040404040461
:104920001F00000000000000000000000000000068
:1049300000000000007F3F000000000000000000B9
:104940000000000000000000000000000000000067
:104950000000000000000000000000000000000057
:10496000000000F8F8F0F0702000000000000000E7
:104970000000000000000000000000000000000037
:1049800000000000000000000000000000008000A7
:104990000000000000000000000000000000000017
:1049A000000000FFFFFFFF0000000000000000000B
:1049B00000000000000000000000808000000000F7
:1049C000000000000000000000000000000000FFE8
:1049D000FFFE060606060606060606060606060686
:1049E000060606FFFFFFFF06060606060606060683
:1049F000060606060606060606FFFFFFFF0702007C
:104A0000000000000000000000000000000000FFA7
:104A1000FFFF000000000000000000000000000098
:104A2000000000FFFFFFFF0000000000000000008A
:104A3000000000000000000000FFFFFFFF0000007A
:104A4000000000000000000000000000000000FF67
:104A5000FFFF181818181818181818181818181808
:104A6000181818FFFFFFFF1818181818181818182A
:104A7000181818181818181818FFFFFFFF00000062
:104A80000000000000000000000000000000020123
:104A90000100000000000000000000000000000015
:104AA000000000FFFFFFFF0000000000000000000A
:104AB00000000000000000000001010000000000F4
:104AC00000000000000000000000000000000000E6
:104AD00000000000000000000000000000000000D6
:104AE000000000FFFFFFFF000000000000000000CA
:104AF00000000000000000000000000000000000B6
:104B000000000000000000000000000000000000A5
:104B10000000000000000000000000000000000095
:104B20000000001F1F0F0F00000000000000000029
:104B30000000000000000000000000000000000075
:104B40000000000000000000000118000118000231
:104B50001900052200062300082500032000072471
:104B600000042100844B0008000000205C000000CD
:104B700028010008E04B00085C0000203C0A00000F
:104B80004401000800A24A040000000000000000E8
:104B900001020304060708090000000001020304E3
:104BA00001020304060708090204060800000000C9
:104BB00000000000000000000000000000000000F5
:104BC00000000000000000000000000000000000E5
:104BD00000000000000000000000000000000000D5
:04000005080000ED02
:00000001FF
